{
  "contractName": "Request",
  "abi": [
    {
      "inputs": [
        {
          "internalType": "address",
          "name": "_digitalRupiah",
          "type": "address"
        },
        {
          "internalType": "address",
          "name": "_buyer",
          "type": "address"
        },
        {
          "internalType": "uint256",
          "name": "_rupiahAmount",
          "type": "uint256"
        },
        {
          "internalType": "address",
          "name": "_SBN",
          "type": "address"
        },
        {
          "internalType": "address",
          "name": "_seller",
          "type": "address"
        },
        {
          "internalType": "uint256",
          "name": "_sbnAmount",
          "type": "uint256"
        },
        {
          "internalType": "uint256",
          "name": "_expiredDate",
          "type": "uint256"
        }
      ],
      "stateMutability": "nonpayable",
      "type": "constructor"
    },
    {
      "inputs": [],
      "name": "SBN",
      "outputs": [
        {
          "internalType": "contract IERC20",
          "name": "",
          "type": "address"
        }
      ],
      "stateMutability": "view",
      "type": "function"
    },
    {
      "inputs": [],
      "name": "Timestamp_expiredDate",
      "outputs": [
        {
          "internalType": "uint256",
          "name": "",
          "type": "uint256"
        }
      ],
      "stateMutability": "view",
      "type": "function"
    },
    {
      "inputs": [],
      "name": "buyer",
      "outputs": [
        {
          "internalType": "address",
          "name": "",
          "type": "address"
        }
      ],
      "stateMutability": "view",
      "type": "function"
    },
    {
      "inputs": [],
      "name": "digitalRupiah",
      "outputs": [
        {
          "internalType": "contract IERC20",
          "name": "",
          "type": "address"
        }
      ],
      "stateMutability": "view",
      "type": "function"
    },
    {
      "inputs": [],
      "name": "rupiahAmount",
      "outputs": [
        {
          "internalType": "uint256",
          "name": "",
          "type": "uint256"
        }
      ],
      "stateMutability": "view",
      "type": "function"
    },
    {
      "inputs": [],
      "name": "sbnAmount",
      "outputs": [
        {
          "internalType": "uint256",
          "name": "",
          "type": "uint256"
        }
      ],
      "stateMutability": "view",
      "type": "function"
    },
    {
      "inputs": [],
      "name": "seller",
      "outputs": [
        {
          "internalType": "address",
          "name": "",
          "type": "address"
        }
      ],
      "stateMutability": "view",
      "type": "function"
    },
    {
      "inputs": [],
      "name": "status",
      "outputs": [
        {
          "internalType": "enum RequestStatus",
          "name": "",
          "type": "uint8"
        }
      ],
      "stateMutability": "view",
      "type": "function"
    },
    {
      "inputs": [],
      "name": "accept",
      "outputs": [],
      "stateMutability": "nonpayable",
      "type": "function"
    },
    {
      "inputs": [],
      "name": "cancel",
      "outputs": [],
      "stateMutability": "nonpayable",
      "type": "function"
    },
    {
      "inputs": [],
      "name": "reject",
      "outputs": [],
      "stateMutability": "nonpayable",
      "type": "function"
    }
  ],
  "bytecode": "0x608060405234801561001057600080fd5b50604051610acf380380610acf83398101604081905261002f916102ac565b826001600160a01b0316866001600160a01b0316036100a05760405162461bcd60e51b815260206004820152602260248201527f627579657220616e642073656c6c6572206d75737420626520646966666572656044820152611b9d60f21b60648201526084015b60405180910390fd5b6100ac610e108261031d565b156101045760405162461bcd60e51b815260206004820152602260248201527f457870697265642064617465206d75737420617420616e20657861637420686f6044820152613ab960f11b6064820152608401610097565b610111426201518061033f565b8111156101745760405162461bcd60e51b815260206004820152602b60248201527f457870697265642064617465206d757374206e6f74206578636565642031206460448201526a61792066726f6d206e6f7760a81b6064820152608401610097565b600080546001600160a01b038981166001600160a01b03199283161790925560018054898416908316179055600287905560038054878416908316811790915560048054938716939092168317825560058590556040516370a0823160e01b8152918201929092528391906370a0823190602401602060405180830381865afa158015610205573d6000803e3d6000fd5b505050506040513d601f19601f820116820180604052508101906102299190610365565b10156102775760405162461bcd60e51b815260206004820152601c60248201527f53424e20756e69747320746f2073656c6c206e6f7420656e6f756768000000006044820152606401610097565b60075550506006805460ff191690555061037e92505050565b80516001600160a01b03811681146102a757600080fd5b919050565b600080600080600080600060e0888a0312156102c757600080fd5b6102d088610290565b96506102de60208901610290565b9550604088015194506102f360608901610290565b935061030160808901610290565b925060a0880151915060c0880151905092959891949750929550565b60008261033a57634e487b7160e01b600052601260045260246000fd5b500690565b6000821982111561036057634e487b7160e01b600052601160045260246000fd5b500190565b60006020828403121561037757600080fd5b5051919050565b6107428061038d6000396000f3fe608060405234801561001057600080fd5b50600436106100a95760003560e01c806370767ec51161007157806370767ec51461011d5780637150d8ae1461013457806390be042a14610147578063b53f5ef814610150578063ea8a1af014610163578063f17fffb71461016b57600080fd5b806308551a53146100ae578063200d2ed2146100de5780632852b71c146100f85780634dc415de1461010257806362ccceaa1461010a575b600080fd5b6004546100c1906001600160a01b031681565b6040516001600160a01b0390911681526020015b60405180910390f35b6006546100eb9060ff1681565b6040516100d59190610673565b610100610174565b005b610100610458565b6000546100c1906001600160a01b031681565b61012660025481565b6040519081526020016100d5565b6001546100c1906001600160a01b031681565b61012660055481565b6003546100c1906001600160a01b031681565b6101006104f4565b61012660075481565b6001546001600160a01b031633146101cb5760405162461bcd60e51b815260206004820152601560248201527413db9b1e48109d5e595c8810d85b881058d8d95c1d605a1b60448201526064015b60405180910390fd5b600060065460ff1660038111156101e4576101e461065d565b146102015760405162461bcd60e51b81526004016101c29061069b565b6007544211156102455760405162461bcd60e51b815260206004820152600f60248201526e14995c5d595cdd08195e1c1a5c9959608a1b60448201526064016101c2565b600254600054600154604051636eb1769f60e11b81526001600160a01b03918216600482015230602482015291169063dd62ed3e90604401602060405180830381865afa15801561029a573d6000803e3d6000fd5b505050506040513d601f19601f820116820180604052508101906102be91906106ca565b10156103205760405162461bcd60e51b815260206004820152602b60248201527f42757965722773204469676974616c2052757069616820616c6c6f77616e636560448201526a20697320746f6f206c6f7760a81b60648201526084016101c2565b60055460035460048054604051636eb1769f60e11b81526001600160a01b03918216928101929092523060248301529091169063dd62ed3e90604401602060405180830381865afa158015610379573d6000803e3d6000fd5b505050506040513d601f19601f8201168201806040525081019061039d91906106ca565b10156103f55760405162461bcd60e51b815260206004820152602160248201527f53656c6c657227732053424e20616c6c6f77616e636520697320746f6f206c6f6044820152607760f81b60648201526084016101c2565b60005460015460045460025461041b936001600160a01b03908116938116921690610590565b600354600454600154600554610441936001600160a01b03908116938116921690610590565b600680546003919060ff19166001835b0217905550565b6001546001600160a01b031633146104aa5760405162461bcd60e51b815260206004820152601560248201527413db9b1e48189d5e595c8818d85b881c995a9958dd605a1b60448201526064016101c2565b600060065460ff1660038111156104c3576104c361065d565b146104e05760405162461bcd60e51b81526004016101c29061069b565b600680546002919060ff1916600183610451565b6004546001600160a01b031633146105475760405162461bcd60e51b815260206004820152601660248201527513db9b1e481cd95b1b195c8818d85b8818d85b98d95b60521b60448201526064016101c2565b600060065460ff1660038111156105605761056061065d565b1461057d5760405162461bcd60e51b81526004016101c29061069b565b600680546001919060ff19168280610451565b6040516323b872dd60e01b81526001600160a01b038481166004830152838116602483015260448201839052600091908616906323b872dd906064016020604051808303816000875af11580156105eb573d6000803e3d6000fd5b505050506040513d601f19601f8201168201806040525081019061060f91906106e3565b9050806106565760405162461bcd60e51b8152602060048201526015602482015274151bdad95b881d1c985b9cd9995c8819985a5b1959605a1b60448201526064016101c2565b5050505050565b634e487b7160e01b600052602160045260246000fd5b602081016004831061069557634e487b7160e01b600052602160045260246000fd5b91905290565b60208082526015908201527414995c5d595cdd081dd85cc818dbdb5c1b195d1959605a1b604082015260600190565b6000602082840312156106dc57600080fd5b5051919050565b6000602082840312156106f557600080fd5b8151801515811461070557600080fd5b939250505056fea2646970667358221220e7774f43a85ed12925030d6b512189190880773c432904df447dcddc21d1f30364736f6c634300080d0033",
  "immutableReferences": {},
  "source": "// SPDX-License-Identifier: MIT\n\npragma solidity ^0.8;\n\nimport \"openzeppelin-solidity/contracts/token/ERC20/IERC20.sol\";\n\nenum RequestStatus {\n    PendingBuyer,\n    Cancelled,\n    Rejected,\n    Accepted\n}\n\ncontract Request {\n    IERC20 public digitalRupiah;\n    address public buyer;\n    uint256 public rupiahAmount;\n\n    IERC20 public SBN;\n    address public seller;\n    uint256 public sbnAmount;\n\n    RequestStatus public status;\n    uint256 public Timestamp_expiredDate;\n\n    constructor(\n        address _digitalRupiah,\n        address _buyer,\n        uint256 _rupiahAmount,\n        address _SBN,\n        address _seller,\n        uint256 _sbnAmount,\n        uint256 _expiredDate\n    ) {\n        require(_buyer != _seller, \"buyer and seller must be different\");\n\n        require(_expiredDate % 3600 == 0, \"Expired date must at an exact hour\");\n        require(\n            _expiredDate <= (block.timestamp + 1 days),\n            \"Expired date must not exceed 1 day from now\"\n        );\n\n        digitalRupiah = IERC20(_digitalRupiah);\n        buyer = _buyer;\n        rupiahAmount = _rupiahAmount;\n\n        SBN = IERC20(_SBN);\n        seller = _seller;\n\n        sbnAmount = _sbnAmount;\n\n        require(\n            SBN.balanceOf(seller) >= sbnAmount,\n            \"SBN units to sell not enough\"\n        );\n\n        Timestamp_expiredDate = _expiredDate;\n\n        status = RequestStatus.PendingBuyer;\n\n        // seller must approve their SBN after contract creation\n    }\n\n    function accept() public {\n        require(msg.sender == buyer, \"Only Buyer Can Accept\");\n        require(status == RequestStatus.PendingBuyer, \"Request was completed\");\n        require(block.timestamp <= Timestamp_expiredDate, \"Request expired\");\n        require(\n            digitalRupiah.allowance(buyer, address(this)) >= rupiahAmount,\n            \"Buyer's Digital Rupiah allowance is too low\"\n        );\n        require(\n            SBN.allowance(seller, address(this)) >= sbnAmount,\n            \"Seller's SBN allowance is too low\"\n        );\n\n        _safeTransferFrom(digitalRupiah, buyer, seller, rupiahAmount);\n        _safeTransferFrom(SBN, seller, buyer, sbnAmount);\n\n        status = RequestStatus.Accepted;\n    }\n\n    function cancel() public {\n        require(msg.sender == seller, \"Only seller can cancel\");\n        require(status == RequestStatus.PendingBuyer, \"Request was completed\");\n\n        status = RequestStatus.Cancelled;\n    }\n\n    function reject() public {\n        require(msg.sender == buyer, \"Only buyer can reject\");\n        require(status == RequestStatus.PendingBuyer, \"Request was completed\");\n\n        status = RequestStatus.Rejected;\n    }\n\n    function _safeTransferFrom(\n        IERC20 token,\n        address sender,\n        address recipient,\n        uint256 amount\n    ) private {\n        bool sent = token.transferFrom(sender, recipient, amount);\n        require(sent, \"Token transfer failed\");\n    }\n}\n",
  "sourcePath": "D:\\Kuliah\\Skripsi\\code_3\\contracts\\Request.sol",
  "compiler": {
    "name": "solc",
    "version": "0.8.13+commit.abaa5c0e.Emscripten.clang"
  },
  "schemaVersion": "3.4.3",
  "updatedAt": "2022-04-29T00:25:32.785Z",
  "networkType": "ethereum",
  "devdoc": {
    "kind": "dev",
    "methods": {},
    "version": 1
  },
  "userdoc": {
    "kind": "user",
    "methods": {},
    "version": 1
  }
}